{
  "contractName": "DataTradeContract",
  "abi": [
    {
      "inputs": [
        {
          "internalType": "uint256[]",
          "name": "_registData_vk",
          "type": "uint256[]"
        },
        {
          "internalType": "uint256[]",
          "name": "_orderData_vk",
          "type": "uint256[]"
        },
        {
          "internalType": "uint256[]",
          "name": "_acceptOrder_vk",
          "type": "uint256[]"
        },
        {
          "internalType": "uint256",
          "name": "depth",
          "type": "uint256"
        },
        {
          "internalType": "uint256[]",
          "name": "vk",
          "type": "uint256[]"
        },
        {
          "internalType": "uint256[]",
          "name": "vkNft",
          "type": "uint256[]"
        },
        {
          "internalType": "uint256",
          "name": "price",
          "type": "uint256"
        },
        {
          "internalType": "address",
          "name": "toReceiveFee",
          "type": "address"
        }
      ],
      "stateMutability": "nonpayable",
      "type": "constructor"
    },
    {
      "anonymous": false,
      "inputs": [
        {
          "indexed": false,
          "internalType": "uint256",
          "name": "cm_del",
          "type": "uint256"
        },
        {
          "indexed": false,
          "internalType": "uint256",
          "name": "cm_peer",
          "type": "uint256"
        },
        {
          "indexed": false,
          "internalType": "uint256",
          "name": "index_del",
          "type": "uint256"
        },
        {
          "indexed": false,
          "internalType": "uint256",
          "name": "index_peer",
          "type": "uint256"
        }
      ],
      "name": "LogAcceptTrade",
      "type": "event"
    },
    {
      "anonymous": false,
      "inputs": [
        {
          "indexed": false,
          "internalType": "bytes32",
          "name": "message",
          "type": "bytes32"
        }
      ],
      "name": "LogDebug",
      "type": "event"
    },
    {
      "anonymous": false,
      "inputs": [
        {
          "indexed": false,
          "internalType": "address",
          "name": "tokenAddress",
          "type": "address"
        },
        {
          "indexed": false,
          "internalType": "uint88",
          "name": "tokenId",
          "type": "uint88"
        }
      ],
      "name": "LogNFT",
      "type": "event"
    },
    {
      "anonymous": false,
      "inputs": [
        {
          "indexed": false,
          "internalType": "uint256",
          "name": "addr",
          "type": "uint256"
        },
        {
          "indexed": false,
          "internalType": "uint256",
          "name": "pkOwn",
          "type": "uint256"
        },
        {
          "components": [
            {
              "internalType": "uint256",
              "name": "x",
              "type": "uint256"
            },
            {
              "internalType": "uint256",
              "name": "y",
              "type": "uint256"
            }
          ],
          "indexed": false,
          "internalType": "struct ZklayBase.CurvePoint",
          "name": "pkEnc",
          "type": "tuple"
        }
      ],
      "name": "LogUserRegister",
      "type": "event"
    },
    {
      "anonymous": false,
      "inputs": [
        {
          "indexed": false,
          "internalType": "uint256",
          "name": "nullifier",
          "type": "uint256"
        },
        {
          "indexed": false,
          "internalType": "uint256",
          "name": "com",
          "type": "uint256"
        },
        {
          "indexed": false,
          "internalType": "uint256[9]",
          "name": "ct",
          "type": "uint256[9]"
        },
        {
          "indexed": false,
          "internalType": "uint256",
          "name": "index",
          "type": "uint256"
        },
        {
          "indexed": false,
          "internalType": "address",
          "name": "tokenAddress",
          "type": "address"
        }
      ],
      "name": "LogZkTransfer",
      "type": "event"
    },
    {
      "anonymous": false,
      "inputs": [
        {
          "indexed": false,
          "internalType": "uint256",
          "name": "nullifier",
          "type": "uint256"
        },
        {
          "indexed": false,
          "internalType": "uint256",
          "name": "com",
          "type": "uint256"
        },
        {
          "indexed": false,
          "internalType": "uint256[9]",
          "name": "ct",
          "type": "uint256[9]"
        },
        {
          "indexed": false,
          "internalType": "uint256",
          "name": "index",
          "type": "uint256"
        }
      ],
      "name": "LogZkTransferNft",
      "type": "event"
    },
    {
      "anonymous": false,
      "inputs": [
        {
          "indexed": true,
          "internalType": "address",
          "name": "previousOwner",
          "type": "address"
        },
        {
          "indexed": true,
          "internalType": "address",
          "name": "newOwner",
          "type": "address"
        }
      ],
      "name": "OwnershipTransferred",
      "type": "event"
    },
    {
      "anonymous": false,
      "inputs": [
        {
          "indexed": false,
          "internalType": "address",
          "name": "sender",
          "type": "address"
        },
        {
          "indexed": false,
          "internalType": "uint256",
          "name": "c0",
          "type": "uint256"
        },
        {
          "indexed": false,
          "internalType": "uint256",
          "name": "c1",
          "type": "uint256"
        },
        {
          "indexed": false,
          "internalType": "uint256[]",
          "name": "c2",
          "type": "uint256[]"
        }
      ],
      "name": "logOrder",
      "type": "event"
    },
    {
      "inputs": [
        {
          "internalType": "uint256",
          "name": "index",
          "type": "uint256"
        }
      ],
      "name": "_computeMerklePath",
      "outputs": [
        {
          "internalType": "bytes32[]",
          "name": "",
          "type": "bytes32[]"
        }
      ],
      "stateMutability": "view",
      "type": "function"
    },
    {
      "inputs": [
        {
          "internalType": "uint256",
          "name": "",
          "type": "uint256"
        }
      ],
      "name": "_nodes",
      "outputs": [
        {
          "internalType": "bytes32",
          "name": "",
          "type": "bytes32"
        }
      ],
      "stateMutability": "view",
      "type": "function"
    },
    {
      "inputs": [],
      "name": "getAPK",
      "outputs": [
        {
          "components": [
            {
              "internalType": "uint256",
              "name": "x",
              "type": "uint256"
            },
            {
              "internalType": "uint256",
              "name": "y",
              "type": "uint256"
            }
          ],
          "internalType": "struct ZklayBase.CurvePoint",
          "name": "",
          "type": "tuple"
        },
        {
          "internalType": "uint256",
          "name": "",
          "type": "uint256"
        }
      ],
      "stateMutability": "view",
      "type": "function"
    },
    {
      "inputs": [
        {
          "internalType": "uint256",
          "name": "index",
          "type": "uint256"
        }
      ],
      "name": "getAPKByIndex",
      "outputs": [
        {
          "components": [
            {
              "internalType": "uint256",
              "name": "x",
              "type": "uint256"
            },
            {
              "internalType": "uint256",
              "name": "y",
              "type": "uint256"
            }
          ],
          "internalType": "struct ZklayBase.CurvePoint",
          "name": "",
          "type": "tuple"
        }
      ],
      "stateMutability": "view",
      "type": "function"
    },
    {
      "inputs": [
        {
          "internalType": "uint256",
          "name": "index",
          "type": "uint256"
        }
      ],
      "name": "getAPKfromIndex",
      "outputs": [
        {
          "components": [
            {
              "internalType": "uint256",
              "name": "x",
              "type": "uint256"
            },
            {
              "internalType": "uint256",
              "name": "y",
              "type": "uint256"
            }
          ],
          "internalType": "struct ZklayBase.CurvePoint",
          "name": "",
          "type": "tuple"
        }
      ],
      "stateMutability": "view",
      "type": "function"
    },
    {
      "inputs": [
        {
          "internalType": "address",
          "name": "tokenAddress",
          "type": "address"
        },
        {
          "internalType": "uint256",
          "name": "addr",
          "type": "uint256"
        }
      ],
      "name": "getCiphertext",
      "outputs": [
        {
          "internalType": "uint256",
          "name": "",
          "type": "uint256"
        },
        {
          "internalType": "uint256",
          "name": "",
          "type": "uint256"
        }
      ],
      "stateMutability": "view",
      "type": "function"
    },
    {
      "inputs": [
        {
          "internalType": "uint256",
          "name": "index",
          "type": "uint256"
        }
      ],
      "name": "getMerklePath",
      "outputs": [
        {
          "internalType": "uint256[]",
          "name": "",
          "type": "uint256[]"
        }
      ],
      "stateMutability": "view",
      "type": "function"
    },
    {
      "inputs": [],
      "name": "getRootTop",
      "outputs": [
        {
          "internalType": "uint256",
          "name": "",
          "type": "uint256"
        }
      ],
      "stateMutability": "view",
      "type": "function"
    },
    {
      "inputs": [
        {
          "internalType": "address",
          "name": "eoa",
          "type": "address"
        }
      ],
      "name": "getUserPublicKeys",
      "outputs": [
        {
          "internalType": "uint256",
          "name": "",
          "type": "uint256"
        },
        {
          "internalType": "uint256",
          "name": "",
          "type": "uint256"
        },
        {
          "components": [
            {
              "internalType": "uint256",
              "name": "x",
              "type": "uint256"
            },
            {
              "internalType": "uint256",
              "name": "y",
              "type": "uint256"
            }
          ],
          "internalType": "struct ZklayBase.CurvePoint",
          "name": "",
          "type": "tuple"
        }
      ],
      "stateMutability": "view",
      "type": "function"
    },
    {
      "inputs": [],
      "name": "getZkTransferFee",
      "outputs": [
        {
          "internalType": "uint256",
          "name": "",
          "type": "uint256"
        }
      ],
      "stateMutability": "view",
      "type": "function"
    },
    {
      "inputs": [],
      "name": "getZkTransferFeeAddress",
      "outputs": [
        {
          "internalType": "address",
          "name": "",
          "type": "address"
        }
      ],
      "stateMutability": "view",
      "type": "function"
    },
    {
      "inputs": [
        {
          "internalType": "uint256",
          "name": "nf",
          "type": "uint256"
        }
      ],
      "name": "isNullified",
      "outputs": [
        {
          "internalType": "bool",
          "name": "",
          "type": "bool"
        }
      ],
      "stateMutability": "view",
      "type": "function"
    },
    {
      "inputs": [
        {
          "internalType": "address",
          "name": "operator",
          "type": "address"
        },
        {
          "internalType": "address",
          "name": "from",
          "type": "address"
        },
        {
          "internalType": "uint256[]",
          "name": "ids",
          "type": "uint256[]"
        },
        {
          "internalType": "uint256[]",
          "name": "values",
          "type": "uint256[]"
        },
        {
          "internalType": "bytes",
          "name": "data",
          "type": "bytes"
        }
      ],
      "name": "onERC1155BatchReceived",
      "outputs": [
        {
          "internalType": "bytes4",
          "name": "",
          "type": "bytes4"
        }
      ],
      "stateMutability": "view",
      "type": "function"
    },
    {
      "inputs": [
        {
          "internalType": "address",
          "name": "operator",
          "type": "address"
        },
        {
          "internalType": "address",
          "name": "from",
          "type": "address"
        },
        {
          "internalType": "uint256",
          "name": "id",
          "type": "uint256"
        },
        {
          "internalType": "uint256",
          "name": "value",
          "type": "uint256"
        },
        {
          "internalType": "bytes",
          "name": "data",
          "type": "bytes"
        }
      ],
      "name": "onERC1155Received",
      "outputs": [
        {
          "internalType": "bytes4",
          "name": "",
          "type": "bytes4"
        }
      ],
      "stateMutability": "view",
      "type": "function"
    },
    {
      "inputs": [
        {
          "internalType": "address",
          "name": "operator",
          "type": "address"
        },
        {
          "internalType": "address",
          "name": "from",
          "type": "address"
        },
        {
          "internalType": "uint256",
          "name": "tokenId",
          "type": "uint256"
        },
        {
          "internalType": "bytes",
          "name": "data",
          "type": "bytes"
        }
      ],
      "name": "onERC721Received",
      "outputs": [
        {
          "internalType": "bytes4",
          "name": "",
          "type": "bytes4"
        }
      ],
      "stateMutability": "view",
      "type": "function"
    },
    {
      "inputs": [],
      "name": "owner",
      "outputs": [
        {
          "internalType": "address",
          "name": "",
          "type": "address"
        }
      ],
      "stateMutability": "view",
      "type": "function"
    },
    {
      "inputs": [
        {
          "internalType": "uint256[]",
          "name": "apk",
          "type": "uint256[]"
        }
      ],
      "name": "registerAuditor",
      "outputs": [],
      "stateMutability": "nonpayable",
      "type": "function"
    },
    {
      "inputs": [
        {
          "internalType": "address",
          "name": "tokenAddress",
          "type": "address"
        }
      ],
      "name": "registerToken",
      "outputs": [],
      "stateMutability": "nonpayable",
      "type": "function"
    },
    {
      "inputs": [
        {
          "internalType": "uint256",
          "name": "addr",
          "type": "uint256"
        },
        {
          "internalType": "uint256",
          "name": "pkOwn",
          "type": "uint256"
        },
        {
          "internalType": "uint256[]",
          "name": "pkEnc",
          "type": "uint256[]"
        }
      ],
      "name": "registerUser",
      "outputs": [],
      "stateMutability": "nonpayable",
      "type": "function"
    },
    {
      "inputs": [],
      "name": "renounceOwnership",
      "outputs": [],
      "stateMutability": "nonpayable",
      "type": "function"
    },
    {
      "inputs": [
        {
          "internalType": "address",
          "name": "addr",
          "type": "address"
        }
      ],
      "name": "setAzerothPriceAddress",
      "outputs": [],
      "stateMutability": "nonpayable",
      "type": "function"
    },
    {
      "inputs": [
        {
          "internalType": "uint256",
          "name": "price",
          "type": "uint256"
        }
      ],
      "name": "setZkTransferFee",
      "outputs": [],
      "stateMutability": "nonpayable",
      "type": "function"
    },
    {
      "inputs": [
        {
          "internalType": "address",
          "name": "from",
          "type": "address"
        },
        {
          "internalType": "uint256",
          "name": "value",
          "type": "uint256"
        },
        {
          "internalType": "bytes",
          "name": "data",
          "type": "bytes"
        }
      ],
      "name": "tokenFallback",
      "outputs": [],
      "stateMutability": "pure",
      "type": "function"
    },
    {
      "inputs": [
        {
          "internalType": "address",
          "name": "newOwner",
          "type": "address"
        }
      ],
      "name": "transferOwnership",
      "outputs": [],
      "stateMutability": "nonpayable",
      "type": "function"
    },
    {
      "inputs": [
        {
          "internalType": "uint256[]",
          "name": "proof",
          "type": "uint256[]"
        },
        {
          "internalType": "uint256[]",
          "name": "inputs",
          "type": "uint256[]"
        },
        {
          "internalType": "address",
          "name": "toEoA",
          "type": "address"
        },
        {
          "internalType": "address",
          "name": "tokenAddress",
          "type": "address"
        }
      ],
      "name": "zkTransfer",
      "outputs": [],
      "stateMutability": "payable",
      "type": "function"
    },
    {
      "inputs": [
        {
          "internalType": "uint256[]",
          "name": "proof",
          "type": "uint256[]"
        },
        {
          "internalType": "uint256[]",
          "name": "inputs",
          "type": "uint256[]"
        },
        {
          "internalType": "address",
          "name": "toEoA",
          "type": "address"
        }
      ],
      "name": "zkTransferNft",
      "outputs": [],
      "stateMutability": "payable",
      "type": "function"
    },
    {
      "inputs": [
        {
          "internalType": "uint256",
          "name": "pk_own",
          "type": "uint256"
        },
        {
          "internalType": "uint256",
          "name": "pk_enc",
          "type": "uint256"
        },
        {
          "internalType": "address",
          "name": "eoa",
          "type": "address"
        }
      ],
      "name": "registUserByDelegator",
      "outputs": [],
      "stateMutability": "payable",
      "type": "function"
    },
    {
      "inputs": [
        {
          "internalType": "uint256",
          "name": "pk_own",
          "type": "uint256"
        },
        {
          "internalType": "uint256",
          "name": "pk_enc",
          "type": "uint256"
        }
      ],
      "name": "registUser",
      "outputs": [],
      "stateMutability": "payable",
      "type": "function"
    },
    {
      "inputs": [
        {
          "internalType": "uint256",
          "name": "addr",
          "type": "uint256"
        },
        {
          "internalType": "uint256",
          "name": "pk_own",
          "type": "uint256"
        },
        {
          "internalType": "uint256",
          "name": "pk_enc",
          "type": "uint256"
        },
        {
          "internalType": "address",
          "name": "eoa",
          "type": "address"
        }
      ],
      "name": "_registUser",
      "outputs": [],
      "stateMutability": "payable",
      "type": "function"
    },
    {
      "inputs": [
        {
          "internalType": "uint256",
          "name": "addr",
          "type": "uint256"
        }
      ],
      "name": "isRegisteredUser",
      "outputs": [
        {
          "internalType": "bool",
          "name": "",
          "type": "bool"
        }
      ],
      "stateMutability": "view",
      "type": "function"
    },
    {
      "inputs": [
        {
          "internalType": "uint256[]",
          "name": "inputs",
          "type": "uint256[]"
        }
      ],
      "name": "registData",
      "outputs": [
        {
          "internalType": "bool",
          "name": "",
          "type": "bool"
        }
      ],
      "stateMutability": "nonpayable",
      "type": "function"
    },
    {
      "inputs": [
        {
          "internalType": "uint256",
          "name": "_hct",
          "type": "uint256"
        }
      ],
      "name": "isRegistered",
      "outputs": [
        {
          "internalType": "bool",
          "name": "",
          "type": "bool"
        }
      ],
      "stateMutability": "view",
      "type": "function"
    },
    {
      "inputs": [
        {
          "internalType": "uint256[]",
          "name": "proof",
          "type": "uint256[]"
        },
        {
          "internalType": "uint256[]",
          "name": "inputs",
          "type": "uint256[]"
        },
        {
          "internalType": "address",
          "name": "tokenAddress",
          "type": "address"
        }
      ],
      "name": "orderData",
      "outputs": [
        {
          "internalType": "bool",
          "name": "",
          "type": "bool"
        }
      ],
      "stateMutability": "payable",
      "type": "function"
    },
    {
      "inputs": [
        {
          "internalType": "uint256[]",
          "name": "proof",
          "type": "uint256[]"
        },
        {
          "internalType": "uint256[]",
          "name": "inputs",
          "type": "uint256[]"
        }
      ],
      "name": "acceptOrder",
      "outputs": [
        {
          "internalType": "bool",
          "name": "",
          "type": "bool"
        }
      ],
      "stateMutability": "nonpayable",
      "type": "function"
    },
    {
      "inputs": [
        {
          "internalType": "address",
          "name": "tokenAddress",
          "type": "address"
        },
        {
          "internalType": "uint256",
          "name": "addr",
          "type": "uint256"
        },
        {
          "internalType": "uint256",
          "name": "ena_r",
          "type": "uint256"
        },
        {
          "internalType": "uint256",
          "name": "ena_ct",
          "type": "uint256"
        }
      ],
      "name": "setENA",
      "outputs": [
        {
          "internalType": "bool",
          "name": "",
          "type": "bool"
        }
      ],
      "stateMutability": "payable",
      "type": "function"
    }
  ],
  "bytecode": "0x608060405260006007556000600e55630bebc2006016553480156200002357600080fd5b5060405162004fc338038062004fc38339810160408190526200004691620005d3565b60008590558484848484846200005e81600262000721565b6001818155906200007190600262000809565b6200007d91906200082b565b6002556000546001600160401b03811115620000a957634e487b7160e01b600052604160045260246000fd5b604051908082528060200260200182016040528015620000d3578160200160208202803683370190505b508051620000ea91600491602090910190620004a9565b50620000f562000210565b50620001013362000389565b60008051602062004fa3833981519152546000818152600960209081526040909120805460ff19166001179055600f8290558551620001479160139190880190620004a9565b5083516200015d906014906020870190620004a9565b505060008052601560209081527fa31547ce6245cdb9ecea19cf8c7eb9f5974025bb4075011409251ae855b30aed805460ff19166001179055600792909255600880546001600160a01b03929092166001600160a01b03199092169190911790558b51620001d59450601c9350908c019150620004a9565b508651620001eb90601d9060208a0190620004a9565b5085516200020190601e906020890190620004a9565b5050505050505050506200088f565b6000801b60046000815481106200023757634e487b7160e01b600052603260045260246000fd5b60009182526020909120015560015b6000548110156200031857620002d56004620002646001846200082b565b815481106200028357634e487b7160e01b600052603260045260246000fd5b906000526020600020015460046001846200029f91906200082b565b81548110620002be57634e487b7160e01b600052603260045260246000fd5b9060005260206000200154620003db60201b60201c565b60048281548110620002f757634e487b7160e01b600052603260045260246000fd5b600091825260209091200155806200030f8162000845565b91505062000246565b506200036d600460016000546200033091906200082b565b815481106200034f57634e487b7160e01b600052603260045260246000fd5b9060005260206000200154600460016000546200029f91906200082b565b60008052600360205260008051602062004fa383398151915255565b600680546001600160a01b038381166001600160a01b0319831681179093556040519116919082907f8be0079c531659141344cd1fd0a4f28419497f9722a3daafe3b4186f6b6457e090600090a35050565b6000620003f48383620003fb60201b62002b321760201c565b9392505050565b60007f30644e72e131a029b85045b68181585d2833e84879b9709143e1f593f000000180838508818182098282848386858609090991507faed26d6a3f5e0ea662411ddfcde3527479de9cee7a56c656ff5f61df13a3940160005260005b605a81121562000491576020600020806000528487868387080893505083838409915083838584878687090909925060010162000459565b50508184820890508184838784080895945050505050565b828054828255906000526020600020908101928215620004e7579160200282015b82811115620004e7578251825591602001919060010190620004ca565b50620004f5929150620004f9565b5090565b5b80821115620004f55760008155600101620004fa565b80516001600160a01b03811681146200052857600080fd5b919050565b600082601f8301126200053e578081fd5b815160206001600160401b03808311156200055d576200055d62000879565b818302604051601f19603f8301168101818110848211171562000584576200058462000879565b60405284815283810192508684018288018501891015620005a3578687fd5b8692505b85831015620005c7578051845292840192600192909201918401620005a7565b50979650505050505050565b600080600080600080600080610100898b031215620005f0578384fd5b88516001600160401b038082111562000607578586fd5b620006158c838d016200052d565b995060208b01519150808211156200062b578586fd5b620006398c838d016200052d565b985060408b01519150808211156200064f578586fd5b6200065d8c838d016200052d565b975060608b0151965060808b01519150808211156200067a578586fd5b620006888c838d016200052d565b955060a08b01519150808211156200069e578485fd5b50620006ad8b828c016200052d565b93505060c08901519150620006c560e08a0162000510565b90509295985092959890939650565b80825b6001808611620006e8575062000718565b818704821115620006fd57620006fd62000863565b808616156200070b57918102915b9490941c938002620006d7565b94509492505050565b6000620003f460001984846000826200073d57506001620003f4565b816200074c57506000620003f4565b81600181146200076557600281146200077057620007a4565b6001915050620003f4565b60ff84111562000784576200078462000863565b6001841b9150848211156200079d576200079d62000863565b50620003f4565b5060208310610133831016604e8410600b8410161715620007dc575081810a83811115620007d657620007d662000863565b620003f4565b620007eb8484846001620006d4565b80860482111562000800576200080062000863565b02949350505050565b600081600019048311821515161562000826576200082662000863565b500290565b60008282101562000840576200084062000863565b500390565b60006000198214156200085c576200085c62000863565b5060010190565b634e487b7160e01b600052601160045260246000fd5b634e487b7160e01b600052604160045260246000fd5b614704806200089f6000396000f3fe6080604052600436106102045760003560e01c806382135d2c11610118578063c0b8776d116100a0578063d270ecdf1161006f578063d270ecdf14610611578063e4b808cb14610631578063e5e678ea14610666578063f23a6e6114610693578063f2fde38b146106c057610204565b8063c0b8776d14610596578063c0ee0b8a146105a9578063c48a13e1146105c9578063d12ad3e1146105dc57610204565b80639d846971116100e75780639d84697114610501578063a6bb878d14610514578063ad2ff29614610534578063bc197c8114610547578063bffa69301461057657610204565b806382135d2c1461049b578063882712ab146104bb5780638da5cb5b146104ce578063941f0c41146104ec57610204565b806355ba20e31161019b57806363dc5ecb1161016a57806363dc5ecb14610417578063645e14151461042a5780636e4d651714610459578063715018a6146104865780637d3f194b1461038a57610204565b806355ba20e31461037557806356e638401461038a578063579a6988146103b757806361318952146103e757610204565b806318cf4630116101d757806318cf4630146102d75780631a422550146102f757806322f05074146103275780632e7d754b1461033a57610204565b8063067922a81461020957806309824a8014610240578063150b7a02146102625780631703e3dc146102a7575b600080fd5b34801561021557600080fd5b506008546001600160a01b03165b6040516001600160a01b0390911681526020015b60405180910390f35b34801561024c57600080fd5b5061026061025b366004613d0a565b6106e0565b005b34801561026e57600080fd5b5061028e61027d366004613dda565b630a85bd0160e11b95945050505050565b6040516001600160e01b03199091168152602001610237565b3480156102b357600080fd5b506102c76102c2366004613fc5565b6107c7565b6040519015158152602001610237565b3480156102e357600080fd5b506102606102f2366004613d0a565b6109d6565b34801561030357600080fd5b506102c7610312366004614148565b60009081526018602052604090205460ff1690565b6102c7610335366004613f8d565b610a00565b34801561034657600080fd5b50610367610355366004614148565b60036020526000908152604090205481565b604051908152602001610237565b34801561038157600080fd5b50600f54610367565b34801561039657600080fd5b506103aa6103a5366004614148565b610a82565b6040516102379190614408565b3480156103c357600080fd5b506102c76103d2366004614148565b60009081526017602052604090205460ff1690565b3480156103f357600080fd5b506102c7610402366004614148565b6000908152600a602052604090205460ff1690565b6102606104253660046140c7565b610b09565b34801561043657600080fd5b5061044a610445366004613d0a565b611247565b6040516102379392919061448a565b34801561046557600080fd5b50610479610474366004614148565b6112af565b6040516102379190614304565b34801561049257600080fd5b5061026061138f565b3480156104a757600080fd5b506102c76104b6366004613ff7565b6113a3565b6102606104c9366004614160565b611785565b3480156104da57600080fd5b506006546001600160a01b0316610223565b3480156104f857600080fd5b50600754610367565b61026061050f3660046141f9565b6117a6565b34801561052057600080fd5b5061026061052f366004614148565b611931565b6102c7610542366004614057565b61193e565b34801561055357600080fd5b5061028e610562366004613d24565b63bc197c8160e01b98975050505050505050565b34801561058257600080fd5b506102606105913660046141ac565b611f2c565b6102606105a4366004614057565b612081565b3480156105b557600080fd5b506102606105c4366004613ee4565b61258e565b6102606105d7366004614181565b6126e2565b3480156105e857600080fd5b506105f161270c565b604080518351815260209384015193810193909352820152606001610237565b34801561061d57600080fd5b5061026061062c366004613fc5565b61282c565b34801561063d57600080fd5b5061065161064c366004613ebb565b6128e0565b60408051928352602083019190915201610237565b34801561067257600080fd5b50610686610681366004614148565b6129ac565b60405161023791906142c0565b34801561069f57600080fd5b5061028e6106ae366004613e46565b63f23a6e6160e01b9695505050505050565b3480156106cc57600080fd5b506102606106db366004613d0a565b612ab9565b6106e8612bde565b6001600160a01b0381166107435760405162461bcd60e51b815260206004820152601f60248201527f43616e6e6f742072656769737465722061646472657373206f66207a65726f0060448201526064015b60405180910390fd5b6001600160a01b03811660009081526015602052604090205460ff16156107a35760405162461bcd60e51b8152602060048201526014602482015273546f6b656e20616c72656164792065786973747360601b604482015260640161073a565b6001600160a01b03166000908152601560205260409020805460ff19166001179055565b600060048251146108115760405162461bcd60e51b81526020600482015260146024820152730d2dcecc2d8d2c84092dce0eae840d8cadccee8d60631b604482015260640161073a565b601760008360038151811061083657634e487b7160e01b600052603260045260246000fd5b60209081029190910181015182528101919091526040016000205460ff16156108a15760405162461bcd60e51b815260206004820152601760248201527f616c7265616479207265676973746572656420685f6374000000000000000000604482015260640161073a565b60408051600480825260a082019092526000916020820160808036833701905050905060005b6004811015610935578381815181106108f057634e487b7160e01b600052603260045260246000fd5b602002602001015182828151811061091857634e487b7160e01b600052603260045260246000fd5b60209081029190910101528061092d81614687565b9150506108c7565b506001601760008360038151811061095d57634e487b7160e01b600052603260045260246000fd5b6020026020010151815260200190815260200160002060006101000a81548160ff02191690831515021790555060176000826003815181106109af57634e487b7160e01b600052603260045260246000fd5b60209081029190910181015182528101919091526040016000205460ff169150505b919050565b6109de612bde565b600880546001600160a01b0319166001600160a01b0392909216919091179055565b6001600160a01b038416600090815260156020526040812054859060ff16610a3a5760405162461bcd60e51b815260040161073a90614317565b505060408051808201825292835260208084019283526001600160a01b0395909516600090815260128652818120948152939094529290912090518155905160019182015590565b60408051808201909152600080825260208201526000828152600d602052604090205415801590610ac357506000828152600d602052604090206001015415155b610adf5760405162461bcd60e51b815260040161073a90614345565b506000908152600d6020908152604091829020825180840190935280548352600101549082015290565b6001600160a01b038116600090815260156020526040902054819060ff16610b435760405162461bcd60e51b815260040161073a90614317565b83600081518110610b6457634e487b7160e01b600052603260045260246000fd5b602002602001015184600181518110610b8d57634e487b7160e01b600052603260045260246000fd5b60200260200101516000600b6000015414158015610bac5750600c5415155b610bc85760405162461bcd60e51b815260040161073a90614345565b60008281526009602052604090205460ff16610c1f5760405162461bcd60e51b8152602060048201526016602482015275151a1a5cc81c9bdbdd081a5cc81b9bdd081d985b1a5960521b604482015260640161073a565b6000818152600a602052604090205460ff1615610c4e5760405162461bcd60e51b815260040161073a906143c4565b600086600281518110610c7157634e487b7160e01b600052603260045260246000fd5b6020908102919091018101516000818152601090925260409091205490915060ff16610cf55760405162461bcd60e51b815260206004820152602d60248201527f496e76616c696420557365723a2054686520757365722069736e607420696e2060448201526c1d1a19481d5cd95c881b1a5cdd609a1b606482015260840161073a565b6001600160a01b038516600090815260126020908152604080832084845282528083208151808301835281548152600190910154818401528151600480825260a082019093529093929091908201608080368337019050509050600b6000015481600081518110610d7657634e487b7160e01b600052603260045260246000fd5b602002602001018181525050600b6001015481600181518110610da957634e487b7160e01b600052603260045260246000fd5b602002602001018181525050816000015181600281518110610ddb57634e487b7160e01b600052603260045260246000fd5b602002602001018181525050816020015181600381518110610e0d57634e487b7160e01b600052603260045260246000fd5b602002602001018181525050610e2e8a610e27838c612c38565b6000612deb565b610e4a5760405162461bcd60e51b815260040161073a90614371565b610e7e89600681518110610e6e57634e487b7160e01b600052603260045260246000fd5b602002602001015160001b612e1a565b6000610e8a6001612ec2565b9050610e9581612f36565b6001600a60008c600181518110610ebc57634e487b7160e01b600052603260045260246000fd5b6020026020010151815260200190815260200160002060006101000a81548160ff02191690831515021790555060006040518061012001604052808c600b81518110610f1857634e487b7160e01b600052603260045260246000fd5b602002602001015181526020018c600c81518110610f4657634e487b7160e01b600052603260045260246000fd5b602002602001015181526020018c600d81518110610f7457634e487b7160e01b600052603260045260246000fd5b602002602001015181526020018c600e81518110610fa257634e487b7160e01b600052603260045260246000fd5b602002602001015181526020018c600f81518110610fd057634e487b7160e01b600052603260045260246000fd5b602002602001015181526020018c601081518110610ffe57634e487b7160e01b600052603260045260246000fd5b602002602001015181526020018c60118151811061102c57634e487b7160e01b600052603260045260246000fd5b602002602001015181526020018c60128151811061105a57634e487b7160e01b600052603260045260246000fd5b602002602001015181526020018c60138151811061108857634e487b7160e01b600052603260045260246000fd5b602002602001015181525090507fdd274a8f09bac9a675f0f4da725a1975aa8140edcddc6254e09c6d15fa0033328b6001815181106110d757634e487b7160e01b600052603260045260246000fd5b60200260200101518c60068151811061110057634e487b7160e01b600052603260045260246000fd5b6020026020010151836005548d60405161111e95949392919061444b565b60405180910390a161119560405180604001604052808d60098151811061115557634e487b7160e01b600052603260045260246000fd5b602002602001015181526020018d600a8151811061118357634e487b7160e01b600052603260045260246000fd5b60200260200101518152508b8b612f54565b61119d613262565b60405180604001604052808c6007815181106111c957634e487b7160e01b600052603260045260246000fd5b602002602001015181526020018c6008815181106111f757634e487b7160e01b600052603260045260246000fd5b6020908102919091018101519091526001600160a01b03909a16600090815260128b526040808220978252968b529590952085518155949098015160019094019390935550505050505050505050565b600080611267604051806040016040528060008152602001600081525090565b5050506001600160a01b031660009081526011602090815260409182902080546001820154845180860190955260028301548552600390920154928401929092529092909190565b606060006112bc836129ac565b9050600080546001600160401b038111156112e757634e487b7160e01b600052604160045260246000fd5b604051908082528060200260200182016040528015611310578160200160208202803683370190505b50905060005b82518110156113875782818151811061133f57634e487b7160e01b600052603260045260246000fd5b602002602001015160001c82828151811061136a57634e487b7160e01b600052603260045260246000fd5b60209081029190910101528061137f81614687565b915050611316565b509392505050565b611397612bde565b6113a16000613307565b565b600060088251146113ee5760405162461bcd60e51b81526020600482015260156024820152740d2dcecc2d8d2c84092dce0eae8e640d8cadccee8d605b1b604482015260640161073a565b601b60008360018151811061141357634e487b7160e01b600052603260045260246000fd5b60209081029190910181015182528101919091526040016000205460ff1661146c5760405162461bcd60e51b815260206004820152600c60248201526b18db4c081b9bc8195e1a5cdd60a21b604482015260640161073a565b601b60008360028151811061149157634e487b7160e01b600052603260045260246000fd5b60209081029190910181015182528101919091526040016000205460ff166114ea5760405162461bcd60e51b815260206004820152600c60248201526b18db4c481b9bc8195e1a5cdd60a21b604482015260640161073a565b6040805160088082526101208201909252600091602082016101008036833701905050905060005b60088110156115805783818151811061153b57634e487b7160e01b600052603260045260246000fd5b602002602001015182828151811061156357634e487b7160e01b600052603260045260246000fd5b60209081029190910101528061157881614687565b915050611512565b5061158d601e8583613359565b6115c95760405162461bcd60e51b815260206004820152600d60248201526c34b73b30b634b210383937b7b360991b604482015260640161073a565b6000601b6000836001815181106115f057634e487b7160e01b600052603260045260246000fd5b6020026020010151815260200190815260200160002060006101000a81548160ff0219169083151502179055506000601b60008360028151811061164457634e487b7160e01b600052603260045260246000fd5b6020026020010151815260200190815260200160002060006101000a81548160ff02191690831515021790555061169581600381518110610e6e57634e487b7160e01b600052603260045260246000fd5b6116b981600481518110610e6e57634e487b7160e01b600052603260045260246000fd5b60006116c56002612ec2565b90506116d081612f36565b7fbb70382e61d38b1076f8f02be1fc48261e021e4aa44bb9b030e83fcb485c2f7a8260038151811061171257634e487b7160e01b600052603260045260246000fd5b60200260200101518360048151811061173b57634e487b7160e01b600052603260045260246000fd5b602002602001015160016005546117529190614670565b60055460408051948552602085019390935291830152606082015260800160405180910390a16001925050505b92915050565b336000818152601160205260409020546117a291849084906117a6565b5050565b60008481526010602052604090205460ff166118045760405162461bcd60e51b815260206004820152601b60248201527f417a65726f746820557365722064656f73206e6f742065786973740000000000604482015260640161073a565b6001600160a01b0381166000908152601960209081526040808320548352601890915290205460ff161561187a5760405162461bcd60e51b815260206004820152601860248201527f6d73672e73656e64657220616c72656164792065786973740000000000000000604482015260640161073a565b60008481526018602052604090205460ff16156118ce5760405162461bcd60e51b8152602060048201526012602482015271155cd95c88185b1c9958591e48195e1a5cdd60721b604482015260640161073a565b6000848152601860209081526040808320805460ff191660019081179091556001600160a01b0390941680845260198352818420978855938701949094556002909501849055928352601a909352902080546001600160a01b0319169091179055565b611939612bde565b600755565b6000600e8351146119885760405162461bcd60e51b81526020600482015260146024820152730d2dcecc2d8d2c84092dce0eae840d8cadccee8d60631b604482015260640161073a565b601b6000846003815181106119ad57634e487b7160e01b600052603260045260246000fd5b60209081029190910181015182528101919091526040016000205460ff1615611a0f5760405162461bcd60e51b815260206004820152601460248201527330b63932b0b23c9032bc34b9ba1031b6afb7bbb760611b604482015260640161073a565b601b600084600481518110611a3457634e487b7160e01b600052603260045260246000fd5b60209081029190910181015182528101919091526040016000205460ff1615611a965760405162461bcd60e51b8152602060048201526014602482015273185b1c9958591e48195e1a5cdd0818db57d9195b60621b604482015260640161073a565b82600581518110611ab757634e487b7160e01b600052603260045260246000fd5b6020908102919091018101516001600160a01b038416600090815260128352604080822033835260118552818320548352909352919091205414611b2e5760405162461bcd60e51b815260206004820152600e60248201526d696e76616c696420454e4128722960901b604482015260640161073a565b82600681518110611b4f57634e487b7160e01b600052603260045260246000fd5b6020908102919091018101516001600160a01b038416600090815260128352604080822033835260118552818320548352909352919091206001015414611bca5760405162461bcd60e51b815260206004820152600f60248201526e696e76616c696420454e412863742960881b604482015260640161073a565b60408051600e8082526101e08201909252600091602082016101c08036833701905050905060005b600e811015611c6057848181518110611c1b57634e487b7160e01b600052603260045260246000fd5b6020026020010151828281518110611c4357634e487b7160e01b600052603260045260246000fd5b602090810291909101015280611c5881614687565b915050611bf2565b50611c6d601d8683613359565b611ca95760405162461bcd60e51b815260206004820152600d60248201526c34b73b30b634b210383937b7b360991b604482015260640161073a565b6001601b600086600381518110611cd057634e487b7160e01b600052603260045260246000fd5b6020026020010151815260200190815260200160002060006101000a81548160ff0219169083151502179055506001601b600086600481518110611d2457634e487b7160e01b600052603260045260246000fd5b6020026020010151815260200190815260200160002060006101000a81548160ff021916908315150217905550604051806040016040528085600781518110611d7d57634e487b7160e01b600052603260045260246000fd5b6020026020010151815260200185600881518110611dab57634e487b7160e01b600052603260045260246000fd5b6020908102919091018101519091526001600160a01b038516600090815260128252604080822033835260118452818320548352835280822084518155938301516001909401939093558251600580825260c0820190945290929091820160a08036833701905050905060005b6005811015611e905782611e2d8260096144dd565b81518110611e4b57634e487b7160e01b600052603260045260246000fd5b6020026020010151828281518110611e7357634e487b7160e01b600052603260045260246000fd5b602090810291909101015280611e8881614687565b915050611e18565b507f62b1242256153330e54c09d31970b25b4d2aeb480b3e260b364a101175ad71063383600181518110611ed457634e487b7160e01b600052603260045260246000fd5b602002602001015184600281518110611efd57634e487b7160e01b600052603260045260246000fd5b602002602001015184604051611f169493929190614289565b60405180910390a16001925050505b9392505050565b60008381526010602052604090205460ff1615611f805760405162461bcd60e51b8152602060048201526012602482015271155cd95c88185b1c9958591e48195e1a5cdd60721b604482015260640161073a565b6000838152601060209081526040808320805460ff19166001908117909155338452601190925280832086815590910184905580518082019091528251819084908490611fdd57634e487b7160e01b600052603260045260246000fd5b602002602001015181526020018360018151811061200b57634e487b7160e01b600052603260045260246000fd5b602090810291909101810151909152336000908152601182526040908190208351600282015591830151600390920191909155519091507f5d896b64597a7e2b976482836cafa74ffe64edaabd18611d718d0e81920dc50f906120739086908690859061448a565b60405180910390a150505050565b816000815181106120a257634e487b7160e01b600052603260045260246000fd5b6020026020010151826001815181106120cb57634e487b7160e01b600052603260045260246000fd5b60200260200101516000600b60000154141580156120ea5750600c5415155b6121065760405162461bcd60e51b815260040161073a90614345565b60008281526009602052604090205460ff1661215d5760405162461bcd60e51b8152602060048201526016602482015275151a1a5cc81c9bdbdd081a5cc81b9bdd081d985b1a5960521b604482015260640161073a565b6000818152600a602052604090205460ff161561218c5760405162461bcd60e51b815260040161073a906143c4565b604080516002808252606082018352600092602083019080368337019050509050600b60000154816000815181106121d457634e487b7160e01b600052603260045260246000fd5b602002602001018181525050600b600101548160018151811061220757634e487b7160e01b600052603260045260246000fd5b602002602001018181525050612228866122218388612c38565b6001612deb565b6122445760405162461bcd60e51b815260040161073a90614371565b61226885600681518110610e6e57634e487b7160e01b600052603260045260246000fd5b60006122746001612ec2565b905061227f81612f36565b6001600a6000886001815181106122a657634e487b7160e01b600052603260045260246000fd5b6020026020010151815260200190815260200160002060006101000a81548160ff02191690831515021790555060006040518061012001604052808860098151811061230257634e487b7160e01b600052603260045260246000fd5b6020026020010151815260200188600a8151811061233057634e487b7160e01b600052603260045260246000fd5b6020026020010151815260200188600b8151811061235e57634e487b7160e01b600052603260045260246000fd5b6020026020010151815260200188600c8151811061238c57634e487b7160e01b600052603260045260246000fd5b6020026020010151815260200188600d815181106123ba57634e487b7160e01b600052603260045260246000fd5b6020026020010151815260200188600e815181106123e857634e487b7160e01b600052603260045260246000fd5b6020026020010151815260200188600f8151811061241657634e487b7160e01b600052603260045260246000fd5b602002602001015181526020018860108151811061244457634e487b7160e01b600052603260045260246000fd5b602002602001015181526020018860118151811061247257634e487b7160e01b600052603260045260246000fd5b602002602001015181525090507fae22b5eb914c897f4ad77dbe0533a3ee0921add0bb4405c1e246dbec3ba96196876001815181106124c157634e487b7160e01b600052603260045260246000fd5b6020026020010151886006815181106124ea57634e487b7160e01b600052603260045260246000fd5b602002602001015183600554604051612506949392919061441f565b60405180910390a161257c60405180604001604052808960078151811061253d57634e487b7160e01b600052603260045260246000fd5b602002602001015181526020018960088151811061256b57634e487b7160e01b600052603260045260246000fd5b6020026020010151815250876137e5565b612584613262565b5050505050505050565b604080516080810182526000606082018190526001600160a01b0386168252602082018590529181018390528251909190601890849060039081106125e357634e487b7160e01b600052603260045260246000fd5b016020015184516001600160f81b031990911690911c60e01c906010908590600290811061262157634e487b7160e01b600052603260045260246000fd5b016020015185516001600160f81b031990911690911c60e01c906008908690600190811061265f57634e487b7160e01b600052603260045260246000fd5b016020015186516001600160f81b031990911690911c60e01c90869060009061269857634e487b7160e01b600052603260045260246000fd5b6020910101516126b1919060e01c63ff000000166144f5565b6126bb91906144f5565b6126c591906144f5565b60e01b6001600160e01b0319166060929092019190915250505050565b6001600160a01b038116600090815260116020526040902054612707908484846117a6565b505050565b6040805180820190915260008082526020820152600b54600090158015906127355750600c5415155b6127515760405162461bcd60e51b815260040161073a90614345565b600d60006001600e546127649190614670565b8152602081019190915260400160002054600b541480156127ad5750600d60006001600e546127939190614670565b815260200190815260200160002060010154600b60010154145b6127f95760405162461bcd60e51b815260206004820152601e60248201527f353030204572726f722c2041504b20736f6d657468696e672077726f6e670000604482015260640161073a565b600b6001600e5461280a9190614670565b6040805180820190915282548152600190920154602083015290925090509091565b612834612bde565b60405180604001604052808260008151811061286057634e487b7160e01b600052603260045260246000fd5b602002602001015181526020018260018151811061288e57634e487b7160e01b600052603260045260246000fd5b602090810291909101810151909152600e80546000908152600d8352604080822085518155949093015160019485015590548082529190208054600b55820154600c556128da916144dd565b600e5550565b6001600160a01b0382166000908152601560205260408120548190849060ff1661291c5760405162461bcd60e51b815260040161073a90614317565b60008481526010602052604090205460ff1661297a5760405162461bcd60e51b815260206004820152601760248201527f546865207573657220646f6573206e6f74206578697374000000000000000000604482015260640161073a565b5050506001600160a01b0391909116600090815260126020908152604080832093835292905220600181015490549091565b6060600080546001600160401b038111156129d757634e487b7160e01b600052604160045260246000fd5b604051908082528060200260200182016040528015612a00578160200160208202803683370190505b50905060005b600054811015612ab2576001841615612a5e57612a2d612a27600186614670565b82613992565b828281518110612a4d57634e487b7160e01b600052603260045260246000fd5b602002602001018181525050612a99565b612a6c612a278560016144dd565b828281518110612a8c57634e487b7160e01b600052603260045260246000fd5b6020026020010181815250505b60019390931c9280612aaa81614687565b915050612a06565b5092915050565b612ac1612bde565b6001600160a01b038116612b265760405162461bcd60e51b815260206004820152602660248201527f4f776e61626c653a206e6577206f776e657220697320746865207a65726f206160448201526564647265737360d01b606482015260840161073a565b612b2f81613307565b50565b60007f30644e72e131a029b85045b68181585d2833e84879b9709143e1f593f000000180838508818182098282848386858609090991507faed26d6a3f5e0ea662411ddfcde3527479de9cee7a56c656ff5f61df13a3940160005260005b605a811215612bc65760206000208060005284878683870808935050838384099150838385848786870909099250600101612b90565b50508184820890508184838784080895945050505050565b6006546001600160a01b031633146113a15760405162461bcd60e51b815260206004820181905260248201527f4f776e61626c653a2063616c6c6572206973206e6f7420746865206f776e6572604482015260640161073a565b60606000835183516001612c4c91906144dd565b612c5691906144dd565b90506000816001600160401b03811115612c8057634e487b7160e01b600052604160045260246000fd5b604051908082528060200260200182016040528015612ca9578160200160208202803683370190505b509050600181600081518110612ccf57634e487b7160e01b600052603260045260246000fd5b60200260200101818152505060005b8551811015612d5857858181518110612d0757634e487b7160e01b600052603260045260246000fd5b602002602001015182826001612d1d91906144dd565b81518110612d3b57634e487b7160e01b600052603260045260246000fd5b602090810291909101015280612d5081614687565b915050612cde565b5060005b8451811015612de257848181518110612d8557634e487b7160e01b600052603260045260246000fd5b6020026020010151828751836001612d9d91906144dd565b612da791906144dd565b81518110612dc557634e487b7160e01b600052603260045260246000fd5b602090810291909101015280612dda81614687565b915050612d5c565b50949350505050565b60008115612e0657612dff60148585613359565b9050611f25565b612e1260138585613359565b949350505050565b60015460055410612e7b5760405162461bcd60e51b815260206004820152602560248201527f426173654d65726b6c65547265653a2043616e6e6f7420617070656e6420616e604482015264796d6f726560d81b606482015260840161073a565b60058054906000612e8b83614687565b90915550600180546000918391612ea29190614670565b612eac91906144dd565b6000908152600360205260409020929092555050565b60055460009081612ed38483614670565b905060005b600054811015612f0357612eed818385613a5f565b9350915080612efb81614687565b915050612ed8565b50506000805250506003602052507f3617319a054d772f909f7c479a2cebe5066e836a939412e32403c99029b92eff5490565b6000818152600960205260409020805460ff19166001179055600f55565b8251602084015181156130f5576001600160a01b03831615613081576040516323b872dd60e01b81523360048201523060248201526044810183905283906001600160a01b038216906323b872dd90606401600060405180830381600087803b158015612fc057600080fd5b505af1158015612fd4573d6000803e3d6000fd5b50505050600034111561307b57604051600090339034908381818185875af1925050503d8060008114613023576040519150601f19603f3d011682016040523d82523d6000602084013e613028565b606091505b50509050806130795760405162461bcd60e51b815260206004820152601d60248201527f76707562496e2072657475726e207472616e73666572206661696c6564000000604482015260640161073a565b505b506130f0565b61308c600183614651565b91508134146130f05760405162461bcd60e51b815260206004820152602a60248201527f57726f6e67206d73672e76616c75653a2056616c75652070616964206973206e6044820152691bdd0818dbdc9c9958dd60b21b606482015260840161073a565b613195565b341561319557604051600090339034908381818185875af1925050503d806000811461313d576040519150601f19603f3d011682016040523d82523d6000602084013e613142565b606091505b50509050806131935760405162461bcd60e51b815260206004820152601d60248201527f76707562496e2072657475726e207472616e73666572206661696c6564000000604482015260640161073a565b505b801561325b576001600160a01b038316156132155760405163a9059cbb60e01b81526001600160a01b0385811660048301526024820183905284919082169063a9059cbb90604401600060405180830381600087803b1580156131f757600080fd5b505af115801561320b573d6000803e3d6000fd5b505050505061325b565b613220600182614651565b6040519091506001600160a01b0385169082156108fc029083906000818181858888f19350505050158015613259573d6000803e3d6000fd5b505b5050505050565b6008546007546040516000926001600160a01b031691908381818185875af1925050503d80600081146132b1576040519150601f19603f3d011682016040523d82523d6000602084013e6132b6565b606091505b5050905080612b2f5760405162461bcd60e51b815260206004820152601c60248201527f417a65726f746820666565207472616e73666572206661696c65642e00000000604482015260640161073a565b600680546001600160a01b038381166001600160a01b0319831681179093556040519116919082907f8be0079c531659141344cd1fd0a4f28419497f9722a3daafe3b4186f6b6457e090600090a35050565b600082516008146133ac5760405162461bcd60e51b815260206004820152601e60248201527f50726f6f662073697a6520696e76616c69642028414c542d424e313238290000604482015260640161073a565b600060016002600a87805490506133c39190614670565b6133cd919061451d565b6133d79190614670565b9050808351146134345760405162461bcd60e51b815260206004820152602260248201527f496e707574206c656e67746820646966666572732066726f6d20657870656374604482015261195960f21b606482015260840161073a565b60005b818110156134e7577f30644e72e131a029b85045b68181585d2833e84879b9709143e1f593f000000184828151811061348057634e487b7160e01b600052603260045260246000fd5b6020026020010151106134d55760405162461bcd60e51b815260206004820152601c60248201527f496e707574206973206e6f7420696e207363616c6172206669656c6400000000604482015260640161073a565b806134df81614687565b915050613437565b506134f0613bcc565b600160006107d05a03888452602084209150600a820160208801885160200281018254875260018301925082546020880152600183019250604087015b8183101561357c57835481526001840193508354602082015260018401935082516040820152602083019250604081606083600060078af160408960808b600060068bf116969096169561352d565b5050505050816135f45760405162461bcd60e51b815260206004820152603960248201527f43616c6c20746f2074686520626e323536416464206f7220626e32353653636160448201527f6c61724d756c20707265636f6d70696c6564206661696c656400000000000000606482015260840161073a565b7f198e9393920d483a7260bfb731fb5d25f1aa493335a9e71297e485b7aef312c260408401527f1800deef121f1e76426a00665e5c4479674322d4f75edadd46debd5cd992f6ed60608401527f275dc4a288d1afb3cbb1ac09187524c7db36395df7be3b99e673b13a075a65ec60808401527f1d9befcd05a5323e6da4d435f3b617cdb3af83285c2df711ef39c01571827f9d60a0840152805460c0840152600181015460e08401526002810154610100840152600381015461012084015260048101546101408401526005810154610160840152602087019650865161018084015260208701516101a084015260408701516101c084015260608701516101e0840152608087015161020084015260a087015161022084015260c087015161024084015260e0870151610260840152600681015461028084015260078101546102a084015260088101546102c084015260098101546102e084015260208361030085600060086107d05a03f19150816137d65760405162461bcd60e51b815260206004820152603760248201527f43616c6c20746f20626e3235364164642c20626e3235365363616c61724d756c60448201527f206f7220626e32353650616972696e67206661696c6564000000000000000000606482015260840161073a565b50505160011495945050505050565b8151602083015181156138bb5760408051605884901c6001600160a01b03811682526001600160581b038516602083015282519092859284927f681af9f7b3224058a4ddb04dfad4e2daea3997edb51862e7740d1d40fa3f1ec5929181900390910190a16040516323b872dd60e01b81523360048201523060248201526001600160581b03831660448201526001600160a01b038216906323b872dd90606401600060405180830381600087803b15801561389f57600080fd5b505af11580156138b3573d6000803e3d6000fd5b505050505050505b801561398c5760408051605883901c6001600160a01b03811682526001600160581b038416602083015282519092849284927f681af9f7b3224058a4ddb04dfad4e2daea3997edb51862e7740d1d40fa3f1ec5929181900390910190a16040516323b872dd60e01b81523060048201526001600160a01b0387811660248301526001600160581b03841660448301528216906323b872dd90606401600060405180830381600087803b15801561397057600080fd5b505af1158015613984573d6000803e3d6000fd5b505050505050505b50505050565b60008060001b60036000856001866000546139ad9190614670565b6139b8906002614583565b6139c29190614670565b6139cc91906144dd565b8152602001908152602001600020541415613a145760048281548110613a0257634e487b7160e01b600052603260045260246000fd5b9060005260206000200154905061177f565b6003600084600185600054613a299190614670565b613a34906002614583565b613a3e9190614670565b613a4891906144dd565b815260200190815260200160002054905092915050565b6000806000600186600054613a749190614670565b613a7f906002614583565b613a899190614670565b90506000613a9b6001198716836144dd565b905060006001861615613b37576001613ab487856144dd565b613abe9190614670565b60008181526003602052604090205460048054929350613b06928b908110613af657634e487b7160e01b600052603260045260246000fd5b9060005260206000200154613bc0565b600360006002613b17600186614670565b613b21919061451d565b8152602081019190915260400160002055613b44565b613b4186846144dd565b90505b81811115613b8f57613b57600282614670565b6000818152600360208190526040822054929350613b069291613b7b8560016144dd565b815260200190815260200160002054613bc0565b613b9a60028861451d565b6002613ba78860016144dd565b613bb1919061451d565b94509450505050935093915050565b6000611f258383612b32565b6040518061030001604052806018906020820280368337509192915050565b80356001600160a01b03811681146109d157600080fd5b60008083601f840112613c13578182fd5b5081356001600160401b03811115613c29578182fd5b6020830191508360208083028501011115613c4357600080fd5b9250929050565b600082601f830112613c5a578081fd5b813560206001600160401b03821115613c7557613c756146b8565b808202613c838282016144ad565b838152828101908684018388018501891015613c9d578687fd5b8693505b85841015613cbf578035835260019390930192918401918401613ca1565b50979650505050505050565b60008083601f840112613cdc578182fd5b5081356001600160401b03811115613cf2578182fd5b602083019150836020828501011115613c4357600080fd5b600060208284031215613d1b578081fd5b611f2582613beb565b60008060008060008060008060a0898b031215613d3f578384fd5b613d4889613beb565b9750613d5660208a01613beb565b965060408901356001600160401b0380821115613d71578586fd5b613d7d8c838d01613c02565b909850965060608b0135915080821115613d95578586fd5b613da18c838d01613c02565b909650945060808b0135915080821115613db9578384fd5b50613dc68b828c01613ccb565b999c989b5096995094979396929594505050565b600080600080600060808688031215613df1578081fd5b613dfa86613beb565b9450613e0860208701613beb565b93506040860135925060608601356001600160401b03811115613e29578182fd5b613e3588828901613ccb565b969995985093965092949392505050565b60008060008060008060a08789031215613e5e578182fd5b613e6787613beb565b9550613e7560208801613beb565b9450604087013593506060870135925060808701356001600160401b03811115613e9d578283fd5b613ea989828a01613ccb565b979a9699509497509295939492505050565b60008060408385031215613ecd578182fd5b613ed683613beb565b946020939093013593505050565b600080600060608486031215613ef8578283fd5b613f0184613beb565b9250602080850135925060408501356001600160401b0380821115613f24578384fd5b818701915087601f830112613f37578384fd5b813581811115613f4957613f496146b8565b613f5b601f8201601f191685016144ad565b91508082528884828501011115613f70578485fd5b808484018584013784848284010152508093505050509250925092565b60008060008060808587031215613fa2578384fd5b613fab85613beb565b966020860135965060408601359560600135945092505050565b600060208284031215613fd6578081fd5b81356001600160401b03811115613feb578182fd5b612e1284828501613c4a565b60008060408385031215614009578182fd5b82356001600160401b038082111561401f578384fd5b61402b86838701613c4a565b93506020850135915080821115614040578283fd5b5061404d85828601613c4a565b9150509250929050565b60008060006060848603121561406b578283fd5b83356001600160401b0380821115614081578485fd5b61408d87838801613c4a565b945060208601359150808211156140a2578384fd5b506140af86828701613c4a565b9250506140be60408501613beb565b90509250925092565b600080600080608085870312156140dc578182fd5b84356001600160401b03808211156140f2578384fd5b6140fe88838901613c4a565b95506020870135915080821115614113578384fd5b5061412087828801613c4a565b93505061412f60408601613beb565b915061413d60608601613beb565b905092959194509250565b600060208284031215614159578081fd5b5035919050565b60008060408385031215614172578182fd5b50508035926020909101359150565b600080600060608486031215614195578081fd5b83359250602084013591506140be60408501613beb565b6000806000606084860312156141c0578081fd5b833592506020840135915060408401356001600160401b038111156141e3578182fd5b6141ef86828701613c4a565b9150509250925092565b6000806000806080858703121561420e578182fd5b84359350602085013592506040850135915061413d60608601613beb565b8060005b600981101561398c578151845260209384019390910190600101614230565b6000815180845260208085019450808401835b8381101561427e57815187529582019590820190600101614262565b509495945050505050565b600060018060a01b0386168252846020830152836040830152608060608301526142b6608083018461424f565b9695505050505050565b6020808252825182820181905260009190848201906040850190845b818110156142f8578351835292840192918401916001016142dc565b50909695505050505050565b600060208252611f25602083018461424f565b602080825260149082015273151bdad95b88191bd95cc81b9bdd08195e1a5cdd60621b604082015260600190565b602080825260129082015271105412c8191bd95cc81b9bdd08195e1a5cdd60721b604082015260600190565b60208082526033908201527f496e76616c69642070726f6f663a20556e61626c6520746f20766572696679206040820152727468652070726f6f6620636f72726563746c7960681b606082015260800190565b60208082526024908201527f54686973206e756c6c69666965722068617320616c7265616479206265656e206040820152631d5cd95960e21b606082015260800190565b81518152602080830151908201526040810161177f565b84815260208101849052610180810161443b604083018561422c565b8261016083015295945050505050565b858152602081018590526101a08101614467604083018661422c565b6101608201939093526001600160a01b0391909116610180909101529392505050565b838152602080820184905282516040830152820151606082015260808101612e12565b604051601f8201601f191681016001600160401b03811182821017156144d5576144d56146b8565b604052919050565b600082198211156144f0576144f06146a2565b500190565b600063ffffffff808316818516808303821115614514576145146146a2565b01949350505050565b60008261453857634e487b7160e01b81526012600452602481fd5b500490565b80825b600180861161454f575061457a565b818704821115614561576145616146a2565b8086161561456e57918102915b9490941c938002614540565b94509492505050565b6000611f25600019848460008261459c57506001611f25565b816145a957506000611f25565b81600181146145bf57600281146145c9576145f6565b6001915050611f25565b60ff8411156145da576145da6146a2565b6001841b9150848211156145f0576145f06146a2565b50611f25565b5060208310610133831016604e8410600b8410161715614629575081810a83811115614624576146246146a2565b611f25565b614636848484600161453d565b808604821115614648576146486146a2565b02949350505050565b600081600019048311821515161561466b5761466b6146a2565b500290565b600082821015614682576146826146a2565b500390565b600060001982141561469b5761469b6146a2565b5060010190565b634e487b7160e01b600052601160045260246000fd5b634e487b7160e01b600052604160045260246000fdfea26469706673582212200d219b2722356734eaf04046471d7cb56beee5177eee6c15252f48b1e73369f264736f6c634300080200333617319a054d772f909f7c479a2cebe5066e836a939412e32403c99029b92eff",
  "immutableReferences": {},
  "source": "// SPDX-License-Identifier: LGPL-3.0+\npragma solidity ^0.8.2;\n\nimport \"./Groth16AltBN128.sol\";\nimport \"./MiMC7.sol\";\nimport \"./ZklayBase.sol\";\nimport \"./BaseMerkleTree.sol\";\n\ncontract DataTradeContract is ZklayBase {\n\n    struct userInfo {\n        uint256 addr; // azeroth address\n        uint256 pk_enc;\n        uint256 pk_own;\n    }\n\n    // struct Order {\n    //     address orderer;\n    //     uint256 cm_pear;\n    //     uint256 cm_del;\n    // }\n\n    // h_ct list\n    mapping(uint256 => bool) internal _hCT_list;\n\n    //addr\n    mapping(uint256 => bool) internal _addr_list;\n\n    // EOA -> user keys\n    mapping(address => userInfo) _userInfoMap;\n\n    // pk_own -> address\n    mapping(uint256 => address) _eoaMap;\n\n    // order number -> order\n    // mapping(bytes32 => Order) _order;\n\n    // to check trade\n    mapping(uint256 => bool) waitTradeList;\n\n    // registData SNARK Proof verify input num\n    uint256 internal constant REGISTDATA_NUM_INPUTS = 4;\n\n    // GenTrade SNARK Proof verify input num\n    uint256 internal constant ORDER_NUM_INPUTS = 14;\n\n    // AcceptTrade SNARK Proof verify input num\n    uint256 internal constant ACCEPT_NUM_INPUTS = 8;\n\n    // registDAta SNARK vk\n    uint256[] private registData_vk;\n\n    // GenTrade SNARK vk\n    uint256[] private orderData_vk;\n\n    // Accept Trade vk\n    uint256[] private acceptOrder_vk;\n\n    event logOrder(\n        address sender,\n        uint256 c0,\n        uint256 c1,\n        uint256[] c2\n    );\n\n    event LogAcceptTrade(\n        uint256 cm_del,\n        uint256 cm_peer,\n        uint256 index_del,\n        uint256 index_peer\n    );\n\n    constructor(\n        uint256[] memory _registData_vk,\n        uint256[] memory _orderData_vk,\n        uint256[] memory _acceptOrder_vk,\n        uint256 depth,\n        uint256[] memory vk,\n        uint256[] memory vkNft,\n        uint256 price,\n        address toReceiveFee\n    ) ZklayBase(depth, vk, vkNft, price, toReceiveFee) {\n        registData_vk = _registData_vk;\n        orderData_vk  = _orderData_vk;\n        acceptOrder_vk = _acceptOrder_vk;\n        // registUser(pk_own_del, pk_enc_del);\n    }\n\n    function registUserByDelegator(\n        uint256 pk_own, \n        uint256 pk_enc,\n        address eoa\n    ) \n        public\n        payable\n    {   \n        // bytes32 _addr = MiMC7._hash(bytes32(pk_own), bytes32(pk_enc));\n        _registUser(_addressMap[eoa].Addr, pk_own, pk_enc, eoa);\n    }\n\n    function registUser(\n        uint256 pk_own, \n        uint256 pk_enc\n    )\n        public\n        payable\n    {   \n        // bytes32 _addr = MiMC7._hash(bytes32(pk_own), bytes32(pk_enc));\n        _registUser(_addressMap[msg.sender].Addr, pk_own, pk_enc, msg.sender);\n    }\n\n    function _registUser(\n        uint256 addr,\n        uint256 pk_own, \n        uint256 pk_enc,\n        address eoa\n    )\n        public\n        payable\n    {   \n        require(_addrList[addr], \"Azeroth User deos not exist\");\n        require(!_addr_list[_userInfoMap[eoa].addr], \"msg.sender already exist\");\n        require(!_addr_list[addr], \"User already exist\");\n\n        _addr_list[addr] = true;\n\n        _userInfoMap[eoa].addr = addr;\n        _userInfoMap[eoa].pk_enc = pk_enc;\n        _userInfoMap[eoa].pk_own = pk_own;\n\n        _eoaMap[pk_own] = eoa;\n    }\n\n    function isRegisteredUser(\n        uint256 addr\n    ) \n        public \n        view \n        returns (bool) \n    {\n        return _addr_list[addr];\n    }\n\n    // function isRegisteredAzerothAddr(\n    //     uint256 addr\n    // )\n    //     public\n    //     view\n    //     returns (bool)\n    // {\n    //     return _addrList[addr];\n    // } \n\n    /*\n        --- inputs ---\n        0 : 1 \n        1 : addr_peer\n        2 : h_k\n        3 : h_ct\n        --------------\n    */\n    function registData(\n        uint256[] memory inputs\n    )\n        public  \n        returns(bool)\n    {\n        // check input length\n        require( inputs.length == REGISTDATA_NUM_INPUTS, \"invalid Input length\");\n        \n        // check hct\n        require( !_hCT_list[inputs[3]], \"already registered h_ct\");\n\n        uint256[] memory input_values = new uint256[](REGISTDATA_NUM_INPUTS);\n        for (uint256 i = 0 ; i < REGISTDATA_NUM_INPUTS; i++) {\n            input_values[i] = inputs[i];\n        }\n        // require( Groth16AltBN128._verify(registData_vk, proof, input_values), \"invalid proof\");\n\n        _hCT_list[input_values[3]] = true;\n        return _hCT_list[input_values[3]];\n    }\n\n    function isRegistered(uint256 _hct) \n        public \n        view \n        returns(bool) \n    {\n        return _hCT_list[_hct];\n    }\n\n\n    /**\n        0 : 1 \n        1 : c0 \n        2 : c1\n        3 : cm_own \n        4 : cm_del \n        5 : ENA_r \n        6 : ENA_c \n        7 : ENA'_r \n        8 : ENA'_c \n        9 : CT[0]\n        10: CT[1]\n        11: CT[2]\n        12: CT[3]\n        13: CT[4]\n     */\n    function orderData(\n        uint256[] memory proof,\n        uint256[] memory inputs,\n        address tokenAddress\n    )\n        public\n        payable\n        returns(bool)\n    {\n        require( inputs.length == ORDER_NUM_INPUTS, \"invalid Input length\");\n\n        require( !waitTradeList[inputs[3]], \"already exist cm_own\");\n        require( !waitTradeList[inputs[4]], \"already exist cm_del\");\n        \n        // check ENA is valid   ENA   \n        require(_ENA[tokenAddress][_addressMap[msg.sender].Addr].r == inputs[5], \"invalid ENA(r)\");\n        require(_ENA[tokenAddress][_addressMap[msg.sender].Addr].ct == inputs[6], \"invalid ENA(ct)\");\n\n        uint256[] memory input_values = new uint256[](ORDER_NUM_INPUTS);\n        for (uint256 i = 0 ; i < ORDER_NUM_INPUTS; i++) {\n            input_values[i] = inputs[i];\n        }\n        require( Groth16AltBN128._verify(orderData_vk, proof, input_values), \"invalid proof\");\n        \n        // order number\n        // bytes32 orderNumber = MiMC7._hash(bytes32(inputs[3]), bytes32(inputs[4]));\n        // _order[orderNumber].orderer = msg.sender;\n\n        // insert cm to waitTradeList\n        waitTradeList[inputs[3]] = true;\n        waitTradeList[inputs[4]] = true;\n        // _order[orderNumber].cm_pear = inputs[3];\n        // _order[orderNumber].cm_del = inputs[4];\n        \n        _ENA[tokenAddress][_addressMap[msg.sender].Addr] = ENA(inputs[7], inputs[8]);\n\n        // // emit log\n        uint256[] memory c2 = new uint256[](5);\n        for (uint256 i=0; i<5; i++){\n            c2[i] = input_values[i+9];\n        }\n        emit logOrder(\n            msg.sender,\n            input_values[1],\n            input_values[2],\n            c2\n        );\n\n        return true;\n    }\n\n    // function cancelOrder(\n    //     bytes32 orderNumber\n    // )\n    //     public\n    //     returns (bool)\n    // {\n    //     require(_order[orderNumber].orderer == msg.sender,\"Not match the orderer\");\n    //     require(waitTradeList[_order[orderNumber].cm_pear] == true, \"cm pear no exit\");\n    //     require(waitTradeList[_order[orderNumber].cm_del] == true, \"cm del no exit\");\n\n    //     waitTradeList[_order[orderNumber].cm_pear] = false;\n    //     waitTradeList[_order[orderNumber].cm_del] = false;\n\n    //     return true;\n    // }\n\n    /**\n        0 : 1\n        1 : cm_del  \n        2 : cm_own\n        3 : cm_del_azeroth\n        4 : cm_peer_azeroth\n        5 : ecryptedDataEncKey[0] g^r\n        6 : ecryptedDataEncKey[1] k* pk^r\n        7 : ecryptedDataEncKey[2] enc_k(msg)\n     */\n    function acceptOrder(\n        uint256[] memory proof,\n        uint256[] memory inputs    \n    )\n        public\n        returns(bool)\n    {\n        require(inputs.length == ACCEPT_NUM_INPUTS, \"invalid Inputs length\");\n\n        // check cm\n        require(waitTradeList[inputs[1]], \"cm0 no exist\");\n        require(waitTradeList[inputs[2]], \"cm1 no exist\");\n\n        uint256[] memory input_values = new uint256[](ACCEPT_NUM_INPUTS);\n        for (uint256 i = 0 ; i < ACCEPT_NUM_INPUTS; i++) {\n            input_values[i] = inputs[i];\n        }\n        require( Groth16AltBN128._verify(acceptOrder_vk, proof, input_values), \"invalid proof\");\n\n        waitTradeList[input_values[1]] = false;\n        waitTradeList[input_values[2]] = false;\n\n        _insert(bytes32(input_values[3]));\n        _insert(bytes32(input_values[4]));\n        uint256 new_merkle_root = uint256(_recomputeRoot(2));\n        _addRoot(new_merkle_root);\n\n        \n        emit LogAcceptTrade(\n            input_values[3],\n            input_values[4],\n            BaseMerkleTree._numLeaves - 1,\n            BaseMerkleTree._numLeaves\n        );\n\n        return true;\n    }\n\n    // function checkCmValidation(\n    //     bytes32 orderNumber\n    // )\n    //     public\n    //     view\n    //     returns (bool,bool)\n    // {\n    //     return (waitTradeList[_order[orderNumber].cm_pear], waitTradeList[_order[orderNumber].cm_del]);\n    // }\n\n    function _hash(bytes32 left, bytes32 right)\n        internal\n        pure\n        override\n        returns (bytes32)\n    {\n        return MiMC7._hash(left, right);\n    }\n\n    function _verifyZKProof(\n        uint256[] memory proof,\n        uint256[] memory inputs,\n        bool isNft\n    ) internal override returns (bool) {\n        if (isNft) {\n            return Groth16AltBN128._verify(_vkNft, proof, inputs);\n        }\n        return Groth16AltBN128._verify(_vk, proof, inputs);\n    }\n\n\n    // =================== TO TEST ===================\n    // YOU MUST DELETE BELOW FUNCTIONS BEFORE DEPLOYING\n\n    function setENA(\n        address tokenAddress,\n        uint256 addr,\n        uint256 ena_r,\n        uint256 ena_ct\n    ) \n        public\n        payable\n        registeredToken(tokenAddress)\n        returns (bool)\n    { \n        _ENA[tokenAddress][addr] = ENA(ena_r, ena_ct);\n        return true;\n    }\n}",
  "sourcePath": "/Users/kimsw/2024/zk-Market/azeroth-trade-dev/tradeContract/contracts/DataTradeContract.sol",
  "compiler": {
    "name": "solc",
    "version": "0.8.2+commit.661d1103.Emscripten.clang"
  },
  "schemaVersion": "3.4.14",
  "updatedAt": "2024-02-01T07:14:25.893Z",
  "devdoc": {
    "kind": "dev",
    "methods": {
      "onERC1155BatchReceived(address,address,uint256[],uint256[],bytes)": {
        "details": "Handles the receipt of a multiple ERC1155 token types. This function is called at the end of a `safeBatchTransferFrom` after the balances have been updated. NOTE: To accept the transfer(s), this must return `bytes4(keccak256(\"onERC1155BatchReceived(address,address,uint256[],uint256[],bytes)\"))` (i.e. 0xbc197c81, or its own function selector).",
        "params": {
          "data": "Additional data with no specified format",
          "from": "The address which previously owned the token",
          "ids": "An array containing ids of each token being transferred (order and length must match values array)",
          "operator": "The address which initiated the batch transfer (i.e. msg.sender)",
          "values": "An array containing amounts of each token being transferred (order and length must match ids array)"
        },
        "returns": {
          "_0": "`bytes4(keccak256(\"onERC1155BatchReceived(address,address,uint256[],uint256[],bytes)\"))` if transfer is allowed"
        }
      },
      "onERC1155Received(address,address,uint256,uint256,bytes)": {
        "details": "Handles the receipt of a single ERC1155 token type. This function is called at the end of a `safeTransferFrom` after the balance has been updated. NOTE: To accept the transfer, this must return `bytes4(keccak256(\"onERC1155Received(address,address,uint256,uint256,bytes)\"))` (i.e. 0xf23a6e61, or its own function selector).",
        "params": {
          "data": "Additional data with no specified format",
          "from": "The address which previously owned the token",
          "id": "The ID of the token being transferred",
          "operator": "The address which initiated the transfer (i.e. msg.sender)",
          "value": "The amount of tokens being transferred"
        },
        "returns": {
          "_0": "`bytes4(keccak256(\"onERC1155Received(address,address,uint256,uint256,bytes)\"))` if transfer is allowed"
        }
      },
      "onERC721Received(address,address,uint256,bytes)": {
        "details": "Whenever an {IERC721} `tokenId` token is transferred to this contract via {IERC721-safeTransferFrom} by `operator` from `from`, this function is called. It must return its Solidity selector to confirm the token transfer. If any other value is returned or the interface is not implemented by the recipient, the transfer will be reverted. The selector can be obtained in Solidity with `IERC721Receiver.onERC721Received.selector`."
      },
      "owner()": {
        "details": "Returns the address of the current owner."
      },
      "renounceOwnership()": {
        "details": "Leaves the contract without owner. It will not be possible to call `onlyOwner` functions anymore. Can only be called by the current owner. NOTE: Renouncing ownership will leave the contract without an owner, thereby removing any functionality that is only available to the owner."
      },
      "transferOwnership(address)": {
        "details": "Transfers ownership of the contract to a new account (`newOwner`). Can only be called by the current owner."
      }
    },
    "version": 1
  },
  "userdoc": {
    "kind": "user",
    "methods": {
      "acceptOrder(uint256[],uint256[])": {
        "notice": "0 : 1 1 : cm_del   2 : cm_own 3 : cm_del_azeroth 4 : cm_peer_azeroth 5 : ecryptedDataEncKey[0] g^r 6 : ecryptedDataEncKey[1] k* pk^r 7 : ecryptedDataEncKey[2] enc_k(msg)"
      },
      "orderData(uint256[],uint256[],address)": {
        "notice": "0 : 1  1 : c0  2 : c1 3 : cm_own  4 : cm_del  5 : ENA_r  6 : ENA_c  7 : ENA'_r  8 : ENA'_c  9 : CT[0] 10: CT[1] 11: CT[2] 12: CT[3] 13: CT[4]"
      }
    },
    "version": 1
  }
}