{
  "contractName": "NFTHolder",
  "abi": [
    {
      "inputs": [
        {
          "internalType": "address",
          "name": "operator",
          "type": "address"
        },
        {
          "internalType": "address",
          "name": "from",
          "type": "address"
        },
        {
          "internalType": "uint256",
          "name": "id",
          "type": "uint256"
        },
        {
          "internalType": "uint256",
          "name": "value",
          "type": "uint256"
        },
        {
          "internalType": "bytes",
          "name": "data",
          "type": "bytes"
        }
      ],
      "name": "onERC1155Received",
      "outputs": [
        {
          "internalType": "bytes4",
          "name": "",
          "type": "bytes4"
        }
      ],
      "stateMutability": "view",
      "type": "function"
    },
    {
      "inputs": [
        {
          "internalType": "address",
          "name": "operator",
          "type": "address"
        },
        {
          "internalType": "address",
          "name": "from",
          "type": "address"
        },
        {
          "internalType": "uint256[]",
          "name": "ids",
          "type": "uint256[]"
        },
        {
          "internalType": "uint256[]",
          "name": "values",
          "type": "uint256[]"
        },
        {
          "internalType": "bytes",
          "name": "data",
          "type": "bytes"
        }
      ],
      "name": "onERC1155BatchReceived",
      "outputs": [
        {
          "internalType": "bytes4",
          "name": "",
          "type": "bytes4"
        }
      ],
      "stateMutability": "view",
      "type": "function"
    },
    {
      "inputs": [
        {
          "internalType": "address",
          "name": "operator",
          "type": "address"
        },
        {
          "internalType": "address",
          "name": "from",
          "type": "address"
        },
        {
          "internalType": "uint256",
          "name": "tokenId",
          "type": "uint256"
        },
        {
          "internalType": "bytes",
          "name": "data",
          "type": "bytes"
        }
      ],
      "name": "onERC721Received",
      "outputs": [
        {
          "internalType": "bytes4",
          "name": "",
          "type": "bytes4"
        }
      ],
      "stateMutability": "view",
      "type": "function"
    }
  ],
  "bytecode": "0x608060405234801561001057600080fd5b50610339806100206000396000f3fe608060405234801561001057600080fd5b50600436106100415760003560e01c8063150b7a0214610046578063bc197c8114610082578063f23a6e61146100a4575b600080fd5b610065610054366004610220565b630a85bd0160e11b95945050505050565b6040516001600160e01b0319909116815260200160405180910390f35b610065610090366004610169565b63bc197c8160e01b98975050505050505050565b6100656100b236600461028d565b63f23a6e6160e01b9695505050505050565b80356001600160a01b03811681146100db57600080fd5b919050565b60008083601f8401126100f1578182fd5b50813567ffffffffffffffff811115610108578182fd5b602083019150836020808302850101111561012257600080fd5b9250929050565b60008083601f84011261013a578182fd5b50813567ffffffffffffffff811115610151578182fd5b60208301915083602082850101111561012257600080fd5b60008060008060008060008060a0898b031215610184578384fd5b61018d896100c4565b975061019b60208a016100c4565b9650604089013567ffffffffffffffff808211156101b7578586fd5b6101c38c838d016100e0565b909850965060608b01359150808211156101db578586fd5b6101e78c838d016100e0565b909650945060808b01359150808211156101ff578384fd5b5061020c8b828c01610129565b999c989b5096995094979396929594505050565b600080600080600060808688031215610237578081fd5b610240866100c4565b945061024e602087016100c4565b935060408601359250606086013567ffffffffffffffff811115610270578182fd5b61027c88828901610129565b969995985093965092949392505050565b60008060008060008060a087890312156102a5578182fd5b6102ae876100c4565b95506102bc602088016100c4565b94506040870135935060608701359250608087013567ffffffffffffffff8111156102e5578283fd5b6102f189828a01610129565b979a969950949750929593949250505056fea2646970667358221220a8e754325bf8164ecaaed03a67de2105bc062fbda25dbfad866254f87574f44c64736f6c63430008020033",
  "immutableReferences": {},
  "source": "// Copyright (c) 2015-2020 Clearmatics Technologies Ltd\n//\n// SPDX-License-Identifier: LGPL-3.0+\n\npragma solidity ^0.8.2;\npragma experimental ABIEncoderV2;\n\n/// Declare the ERC20 interface in order to handle ERC20 tokens transfers to\n/// and from the Mixer. Note that we only declare the functions we are\n/// interested in, namely, transferFrom() (used to do a Deposit), and\n/// transfer() (used to do a withdrawal)\nabstract contract ERC20 {\n    function transferFrom(\n        address from,\n        address to,\n        uint256 value\n    ) public virtual;\n\n    function transfer(address to, uint256 value) public virtual;\n}\n\nabstract contract ERC721 {\n    function transferFrom(\n        address from,\n        address to,\n        uint256 tokenId\n    ) public virtual;\n\n    function  safeTransferFrom(\n        address from,\n        address to,\n        uint256 id,\n        bytes memory data\n    ) public virtual;\n}\n\nabstract contract ERC1155 {\n    function safeBatchTransferFrom(\n        address _from,\n        address _to,\n        uint256[] memory _ids,\n        uint256[] memory _values,\n        bytes memory _data\n    ) public virtual;\n\n    function  safeTransferFrom(\n        address from,\n        address to,\n        uint256 id,\n        uint256 amount,\n        bytes memory data\n    ) public virtual;\n}\n\n/// ERC223 token compatible contract\ncontract ERC223ReceivingContract {\n    // See:\n    // solhint-disable-next-line max-line-length\n    //   https://github.com/Dexaran/ERC223-token-standard/blob/Recommended/Receiver_Interface.sol\n    struct Token {\n        address sender;\n        uint256 value;\n        bytes data;\n        bytes4 sig;\n    }\n\n    function tokenFallback(\n        address from,\n        uint256 value,\n        bytes memory data\n    ) public pure {\n        Token memory tkn;\n        tkn.sender = from;\n        tkn.value = value;\n        tkn.data = data;\n\n        // See:\n        // solhint-disable-next-line max-line-length\n        //   https://solidity.readthedocs.io/en/v0.5.5/types.html#conversions-between-elementary-types\n        uint32 u = uint32(bytes4(data[0])) +\n            uint32(bytes4(data[1]) >> 8) +\n            uint32(bytes4(data[2]) >> 16) +\n            uint32(bytes4(data[3]) >> 24);\n        tkn.sig = bytes4(u);\n    }\n}\n// OpenZeppelin Contracts v4.4.1 (token/ERC721/utils/ERC721Holder.sol)\ncontract NFTHolder {\n    /**\n     * @dev Handles the receipt of a single ERC1155 token type. This function is\n     * called at the end of a `safeTransferFrom` after the balance has been updated.\n     *\n     * NOTE: To accept the transfer, this must return\n     * `bytes4(keccak256(\"onERC1155Received(address,address,uint256,uint256,bytes)\"))`\n     * (i.e. 0xf23a6e61, or its own function selector).\n     *\n     * @param operator The address which initiated the transfer (i.e. msg.sender)\n     * @param from The address which previously owned the token\n     * @param id The ID of the token being transferred\n     * @param value The amount of tokens being transferred\n     * @param data Additional data with no specified format\n     * @return `bytes4(keccak256(\"onERC1155Received(address,address,uint256,uint256,bytes)\"))` if transfer is allowed\n     */\n    function onERC1155Received(\n        address operator,\n        address from,\n        uint256 id,\n        uint256 value,\n        bytes calldata data\n    ) public view returns (bytes4) {\n        return this.onERC1155Received.selector;\n    }\n\n    /**\n     * @dev Handles the receipt of a multiple ERC1155 token types. This function\n     * is called at the end of a `safeBatchTransferFrom` after the balances have\n     * been updated.\n     *\n     * NOTE: To accept the transfer(s), this must return\n     * `bytes4(keccak256(\"onERC1155BatchReceived(address,address,uint256[],uint256[],bytes)\"))`\n     * (i.e. 0xbc197c81, or its own function selector).\n     *\n     * @param operator The address which initiated the batch transfer (i.e. msg.sender)\n     * @param from The address which previously owned the token\n     * @param ids An array containing ids of each token being transferred (order and length must match values array)\n     * @param values An array containing amounts of each token being transferred (order and length must match ids array)\n     * @param data Additional data with no specified format\n     * @return `bytes4(keccak256(\"onERC1155BatchReceived(address,address,uint256[],uint256[],bytes)\"))` if transfer is allowed\n     */\n    function onERC1155BatchReceived(\n        address operator,\n        address from,\n        uint256[] calldata ids,\n        uint256[] calldata values,\n        bytes calldata data\n    ) public view returns (bytes4) {\n        return this.onERC1155BatchReceived.selector;\n    }\n\n    /**\n     * @dev Whenever an {IERC721} `tokenId` token is transferred to this contract via {IERC721-safeTransferFrom}\n     * by `operator` from `from`, this function is called.\n     *\n     * It must return its Solidity selector to confirm the token transfer.\n     * If any other value is returned or the interface is not implemented by the recipient, the transfer will be reverted.\n     *\n     * The selector can be obtained in Solidity with `IERC721Receiver.onERC721Received.selector`.\n     */\n    function onERC721Received(\n        address operator,\n        address from,\n        uint256 tokenId,\n        bytes calldata data\n    ) public view returns (bytes4) {\n        return this.onERC721Received.selector;\n    }\n}",
  "sourcePath": "/Users/kimsw/2024/zk-Market/azeroth-trade-dev/tradeContract/contracts/Tokens.sol",
  "compiler": {
    "name": "solc",
    "version": "0.8.2+commit.661d1103.Emscripten.clang"
  },
  "schemaVersion": "3.4.14",
  "updatedAt": "2024-01-19T08:32:11.733Z",
  "devdoc": {
    "kind": "dev",
    "methods": {
      "onERC1155BatchReceived(address,address,uint256[],uint256[],bytes)": {
        "details": "Handles the receipt of a multiple ERC1155 token types. This function is called at the end of a `safeBatchTransferFrom` after the balances have been updated. NOTE: To accept the transfer(s), this must return `bytes4(keccak256(\"onERC1155BatchReceived(address,address,uint256[],uint256[],bytes)\"))` (i.e. 0xbc197c81, or its own function selector).",
        "params": {
          "data": "Additional data with no specified format",
          "from": "The address which previously owned the token",
          "ids": "An array containing ids of each token being transferred (order and length must match values array)",
          "operator": "The address which initiated the batch transfer (i.e. msg.sender)",
          "values": "An array containing amounts of each token being transferred (order and length must match ids array)"
        },
        "returns": {
          "_0": "`bytes4(keccak256(\"onERC1155BatchReceived(address,address,uint256[],uint256[],bytes)\"))` if transfer is allowed"
        }
      },
      "onERC1155Received(address,address,uint256,uint256,bytes)": {
        "details": "Handles the receipt of a single ERC1155 token type. This function is called at the end of a `safeTransferFrom` after the balance has been updated. NOTE: To accept the transfer, this must return `bytes4(keccak256(\"onERC1155Received(address,address,uint256,uint256,bytes)\"))` (i.e. 0xf23a6e61, or its own function selector).",
        "params": {
          "data": "Additional data with no specified format",
          "from": "The address which previously owned the token",
          "id": "The ID of the token being transferred",
          "operator": "The address which initiated the transfer (i.e. msg.sender)",
          "value": "The amount of tokens being transferred"
        },
        "returns": {
          "_0": "`bytes4(keccak256(\"onERC1155Received(address,address,uint256,uint256,bytes)\"))` if transfer is allowed"
        }
      },
      "onERC721Received(address,address,uint256,bytes)": {
        "details": "Whenever an {IERC721} `tokenId` token is transferred to this contract via {IERC721-safeTransferFrom} by `operator` from `from`, this function is called. It must return its Solidity selector to confirm the token transfer. If any other value is returned or the interface is not implemented by the recipient, the transfer will be reverted. The selector can be obtained in Solidity with `IERC721Receiver.onERC721Received.selector`."
      }
    },
    "version": 1
  },
  "userdoc": {
    "kind": "user",
    "methods": {},
    "version": 1
  }
}